{
    "contractName": "WTRToken",
    "abi": [
        {
            "inputs": [],
            "stateMutability": "nonpayable",
            "type": "constructor"
        },
        {
            "anonymous": false,
            "inputs": [
                {
                    "indexed": true,
                    "internalType": "address",
                    "name": "owner",
                    "type": "address"
                },
                {
                    "indexed": true,
                    "internalType": "address",
                    "name": "spender",
                    "type": "address"
                },
                {
                    "indexed": false,
                    "internalType": "uint256",
                    "name": "amount",
                    "type": "uint256"
                }
            ],
            "name": "Approval",
            "type": "event"
        },
        {
            "anonymous": false,
            "inputs": [
                {
                    "indexed": true,
                    "internalType": "address",
                    "name": "sender",
                    "type": "address"
                },
                {
                    "indexed": true,
                    "internalType": "address",
                    "name": "recipient",
                    "type": "address"
                },
                {
                    "indexed": false,
                    "internalType": "uint256",
                    "name": "amount",
                    "type": "uint256"
                }
            ],
            "name": "Transfer",
            "type": "event"
        },
        {
            "inputs": [
                {
                    "internalType": "address",
                    "name": "",
                    "type": "address"
                },
                {
                    "internalType": "address",
                    "name": "",
                    "type": "address"
                }
            ],
            "name": "allowance",
            "outputs": [
                {
                    "internalType": "uint256",
                    "name": "",
                    "type": "uint256"
                }
            ],
            "stateMutability": "view",
            "type": "function"
        },
        {
            "inputs": [
                {
                    "internalType": "address",
                    "name": "spender",
                    "type": "address"
                },
                {
                    "internalType": "uint256",
                    "name": "amount",
                    "type": "uint256"
                }
            ],
            "name": "approve",
            "outputs": [
                {
                    "internalType": "bool",
                    "name": "",
                    "type": "bool"
                }
            ],
            "stateMutability": "nonpayable",
            "type": "function"
        },
        {
            "inputs": [
                {
                    "internalType": "address",
                    "name": "account",
                    "type": "address"
                }
            ],
            "name": "balanceOf",
            "outputs": [
                {
                    "internalType": "uint256",
                    "name": "",
                    "type": "uint256"
                }
            ],
            "stateMutability": "view",
            "type": "function"
        },
        {
            "inputs": [
                {
                    "internalType": "address",
                    "name": "",
                    "type": "address"
                }
            ],
            "name": "balances",
            "outputs": [
                {
                    "internalType": "uint256",
                    "name": "",
                    "type": "uint256"
                }
            ],
            "stateMutability": "view",
            "type": "function"
        },
        {
            "inputs": [],
            "name": "decimals",
            "outputs": [
                {
                    "internalType": "uint256",
                    "name": "",
                    "type": "uint256"
                }
            ],
            "stateMutability": "view",
            "type": "function"
        },
        {
            "inputs": [],
            "name": "name",
            "outputs": [
                {
                    "internalType": "string",
                    "name": "",
                    "type": "string"
                }
            ],
            "stateMutability": "view",
            "type": "function"
        },
        {
            "inputs": [],
            "name": "symbol",
            "outputs": [
                {
                    "internalType": "string",
                    "name": "",
                    "type": "string"
                }
            ],
            "stateMutability": "view",
            "type": "function"
        },
        {
            "inputs": [],
            "name": "totalSupply",
            "outputs": [
                {
                    "internalType": "uint256",
                    "name": "",
                    "type": "uint256"
                }
            ],
            "stateMutability": "view",
            "type": "function"
        },
        {
            "inputs": [
                {
                    "internalType": "address",
                    "name": "recipient",
                    "type": "address"
                },
                {
                    "internalType": "uint256",
                    "name": "amount",
                    "type": "uint256"
                }
            ],
            "name": "transfer",
            "outputs": [
                {
                    "internalType": "bool",
                    "name": "",
                    "type": "bool"
                }
            ],
            "stateMutability": "nonpayable",
            "type": "function"
        },
        {
            "inputs": [
                {
                    "internalType": "address",
                    "name": "spender",
                    "type": "address"
                },
                {
                    "internalType": "address",
                    "name": "recipient",
                    "type": "address"
                },
                {
                    "internalType": "uint256",
                    "name": "amount",
                    "type": "uint256"
                }
            ],
            "name": "transferFrom",
            "outputs": [
                {
                    "internalType": "bool",
                    "name": "",
                    "type": "bool"
                }
            ],
            "stateMutability": "nonpayable",
            "type": "function"
        }
    ],
    "bytecode": "69021e19e0c9bab240000060025560c0604052600b60808190526a5754522046696e616e636560a81b60a090815261003a9160039190610090565b50604080518082019091526003808252622baa2960e91b602090920191825261006591600491610090565b50601260055534801561007757600080fd5b5060025433600090815260208190526040902055610164565b82805461009c90610129565b90600052602060002090601f0160209004810192826100be5760008555610104565b82601f106100d757805160ff1916838001178555610104565b82800160010185558215610104579182015b828111156101045782518255916020019190600101906100e9565b50610110929150610114565b5090565b5b808211156101105760008155600101610115565b600181811c9082168061013d57607f821691505b6020821081141561015e57634e487b7160e01b600052602260045260246000fd5b50919050565b610711806101736000396000f3fe608060405234801561001057600080fd5b506004361061009e5760003560e01c8063313ce56711610066578063313ce5671461012e57806370a082311461013757806395d89b4114610160578063a9059cbb14610168578063dd62ed3e1461017b57600080fd5b806306fdde03146100a3578063095ea7b3146100c157806318160ddd146100e457806323b872dd146100fb57806327e235e31461010e575b600080fd5b6100ab6101a6565b6040516100b89190610606565b60405180910390f35b6100d46100cf3660046105dc565b610234565b60405190151581526020016100b8565b6100ed60025481565b6040519081526020016100b8565b6100d46101093660046105a0565b6102a0565b6100ed61011c36600461054b565b60006020819052908152604090205481565b6100ed60055481565b6100ed61014536600461054b565b6001600160a01b031660009081526020819052604090205490565b6100ab61042c565b6100d46101763660046105dc565b610439565b6100ed61018936600461056d565b600160209081526000928352604080842090915290825290205481565b600380546101b39061068a565b80601f01602080910402602001604051908101604052809291908181526020018280546101df9061068a565b801561022c5780601f106102015761010080835404028352916020019161022c565b820191906000526020600020905b81548152906001019060200180831161020f57829003601f168201915b505050505081565b3360008181526001602090815260408083206001600160a01b038716808552925280832085905551919290917f8c5be1e5ebec7d5bd14f71427d1e84f3dd0314c0f7b2291e5b200ac8c7c3b9259061028f9086815260200190565b60405180910390a350600192915050565b6001600160a01b0383166000908152602081905260408120548211156103075760405162461bcd60e51b815260206004820152601760248201527622a92927a91d102130b630b731b2903a37b7903637bb9760491b60448201526064015b60405180910390fd5b6001600160a01b038416600090815260016020908152604080832033845290915290205482111561037a5760405162461bcd60e51b815260206004820152601960248201527f4552524f523a20416c6c6f77616e636520746f6f206c6f772e0000000000000060448201526064016102fe565b6001600160a01b03831660009081526020819052604090205461039e90839061065b565b6001600160a01b0380851660009081526020819052604080822093909355908616815220546103ce908390610673565b6001600160a01b038581166000818152602081815260409182902094909455518581529186169290917fddf252ad1be2c89b69c2b068fc378daa952ba7f163c4a11628f55a4df523b3ef910160405180910390a35060019392505050565b600480546101b39061068a565b336000908152602081905260408120548211156104925760405162461bcd60e51b815260206004820152601760248201527622a92927a91d102130b630b731b2903a37b7903637bb9760491b60448201526064016102fe565b6001600160a01b0383166000908152602081905260409020546104b690839061065b565b6001600160a01b0384166000908152602081905260408082209290925533815220546104e3908390610673565b336000818152602081815260409182902093909355518481526001600160a01b038616927fddf252ad1be2c89b69c2b068fc378daa952ba7f163c4a11628f55a4df523b3ef910161028f565b80356001600160a01b038116811461054657600080fd5b919050565b60006020828403121561055d57600080fd5b6105668261052f565b9392505050565b6000806040838503121561058057600080fd5b6105898361052f565b91506105976020840161052f565b90509250929050565b6000806000606084860312156105b557600080fd5b6105be8461052f565b92506105cc6020850161052f565b9150604084013590509250925092565b600080604083850312156105ef57600080fd5b6105f88361052f565b946020939093013593505050565b600060208083528351808285015260005b8181101561063357858101830151858201604001528201610617565b81811115610645576000604083870101525b50601f01601f1916929092016040019392505050565b6000821982111561066e5761066e6106c5565b500190565b600082821015610685576106856106c5565b500390565b600181811c9082168061069e57607f821691505b602082108114156106bf57634e487b7160e01b600052602260045260246000fd5b50919050565b634e487b7160e01b600052601160045260246000fdfea2646970667358221220a76290b9f67f27fcea5271f26c76550ab30ebc5d76f0051589a0d87a1493e6e364736f6c63430008070033",
    "sourcePath": "c:/Users/mbara/Documents/GitHub/WTRToken/WTRToken.sol",
    "compiler": {
        "name": "solc",
        "version": "0.8.7+commit.e28d00a7"
    },
    "functionHashes": {
        "allowance(address,address)": "dd62ed3e",
        "approve(address,uint256)": "095ea7b3",
        "balanceOf(address)": "70a08231",
        "balances(address)": "27e235e3",
        "decimals()": "313ce567",
        "name()": "06fdde03",
        "symbol()": "95d89b41",
        "totalSupply()": "18160ddd",
        "transfer(address,uint256)": "a9059cbb",
        "transferFrom(address,address,uint256)": "23b872dd"
    },
    "gasEstimates": {
        "creation": {
            "codeDepositCost": "361800",
            "executionCost": "infinite",
            "totalCost": "infinite"
        },
        "external": {
            "allowance(address,address)": "infinite",
            "approve(address,uint256)": "24522",
            "balanceOf(address)": "2562",
            "balances(address)": "2611",
            "decimals()": "2295",
            "name()": "infinite",
            "symbol()": "infinite",
            "totalSupply()": "2340",
            "transfer(address,uint256)": "53375",
            "transferFrom(address,address,uint256)": "infinite"
        }
    }
}